:020000040800F2
:10000000E0070020B1160008090400080B040008EE
:100010000F04000813040008170400080000000083
:100020000000000000000000000000001B040008A9
:100030001D040008000000001F040008210400083F
:10004000CB160008CB160008CB160008CB1600080C
:10005000CB160008CB160008CB160008CB160008FC
:10006000CB160008CB160008CB160008CB160008EC
:10007000CB160008CB160008CB160008CB160008DC
:10008000CB160008CB160008CB160008CB160008CC
:10009000CB160008CB160008CB160008CB160008BC
:1000A000CB160008CB160008CB160008CB160008AC
:1000B000CB160008CB160008CB160008CB1600089C
:1000C000CB160008CB160008CB160008CB1600088C
:1000D000CB1600082B160008CB160008CB1600081C
:1000E000CB160008CB160008CB160008CB1600086C
:1000F000CB160008CB160008CB160008CB1600085C
:10010000CB160008CB160008CB160008CB1600084B
:10011000CB160008CB160008CB160008CB1600083B
:10012000CB160008CB160008CB160008CB1600082B
:1001300000F002F800F03FF80AA090E8000C8244BA
:100140008344AAF10107DA4501D100F034F8AFF297
:10015000090EBAE80F0013F0010F18BFFB1A43F0A5
:10016000010318474C2400006C240000103A24BFFF
:1001700078C878C1FAD8520724BF30C830C144BF0C
:1001800004680C607047000000230024002500264E
:10019000103A28BF78C1FBD8520728BF30C148BFEA
:1001A0000B607047642902F0D780002070471FB5AC
:1001B0001FBD10B510BD02F0C9F91146FFF7F7FFDA
:1001C00000F0E2F802F0E7F903B4FFF7F2FF03BC36
:1001D00001F0D0F930B585B014226FA1684602F065
:1001E000F7F87248008800F4004080B16F48057845
:1001F000002407E06E480078012801D16D4908709D
:10020000601CC4B2AC42F5DB002068490880694834
:100210000078012816D168A000F0ACFE00F088FE3E
:1002200068A000F0A7FE00F083FE00206849086087
:1002300041F2883001F071F900F0EAFF00205D49D9
:1002400008700EE06348007801280AD16049086010
:1002500041F2883001F061F901F07EF800205D493B
:10026000087005B030BD70B500F042FE0546002DA7
:1002700079D1FF2058490870002436E0C4EBC4004F
:100280005649084480785649097888422BD1C4EBF6
:10029000C40052490844C07851494978884222D163
:1002A000C4EBC4004D49084400794D49897888421F
:1002B00019D1C4EBC4004949084440794849C97878
:1002C000884210D160B2444908703BA000F052FE51
:1002D00000F02EFE43A000F04DFE00F029FE0120AC
:1002E0003C49087003E0601CC4B2092CC6DB00BFA7
:1002F000394890F90000401C002834D1002425E042
:10030000C4EBC400354908448078E8B9C4EBC400A4
:100310000844C078C0B9C4EBC4000844007998B957
:10032000C4EBC4000844407970B960B22A4908702F
:100330002FA000F01FFE00F0FBFD032000F02CFEBC
:10034000002000F029FE03E0601CC4B2092CD7DBBA
:1003500000BF214890F90000401C20B927A000F000
:1003600009FE00F0E5FD70BD10B501F099F84FF4FD
:10037000A06001F041FF4FF4165001F00AF900F0BF
:1003800041F900F0A7FA10BDFFF7EEFF03E0FFF719
:100390006AFFFFF71FFFFAE7303132333435363763
:1003A0003839616263646566000000007E000020E9
:1003B000B40000200900002070616765207061674B
:1003C000653300007661302E76616C3D31000000AF
:1003D000A00121420800002000000020330000207E
:1003E000220000207661302E76616C3D32000000E4
:1003F00070616765207061676531000070616765D5
:100400002070616765340000704700BFFEE700BFE1
:10041000FEE700BFFEE700BFFEE77047704770478A
:10042000704700000CB50020019000906C480068F7
:1004300040F480306A49086000BF6948006800F4F1
:10044000003000900198401C0190009818B9019864
:10045000B0F5A06FF1D16248006800F4003010B12F
:100460000120009001E0002000900098012843D175
:100470005C48006840F010005A490860084600686F
:1004800020F0030008600846006840F002000860A1
:1004900053484068524948600846406848600846EA
:1004A000406840F4806048600846406820F47C1052
:1004B00048600846406840F4E81048600846006814
:1004C00040F08070086000BF4548006800F0007090
:1004D0000028F9D04248406820F0030040494860B5
:1004E0000846406840F00200486000BF3C48406851
:1004F00000F00C000828F9D10CBD10B5FFF792FFF1
:1005000010BD10B53648006840F00100344908605D
:100510000846406834490840314948600846006848
:10052000324908402E4908600846006820F48020BF
:1005300008600846406820F4FE0048604FF41F0041
:100540008860FFF7DAFF4FF000602949086010BDAE
:1005500010B5002100200022214B5B6803F00C0144
:1005600021B1042906D0082928D107E0214B224CCB
:10057000236027E01F4B204C236023E0184B5B686F
:1005800003F47010164B5B6803F48032022303EB14
:10059000904022B9194B4343174C23600DE0104B98
:1005A0005B6803F4003323B1144B4343124C2360C4
:1005B00003E0104B4343104C236003E00D4B0E4C03
:1005C000236000BF00BF064B5B68C3F303130C4CF2
:1005D000E15C094B1B68CB40074C236010BD000059
:1005E00000100240002002400000FFF8FFFFF6FE6E
:1005F00008ED00E000127A000C00002000093D0028
:100600001000002008B50121242001F08DFB4FF4DB
:100610008070ADF8000010208DF8030003208DF8E5
:1006200002006946094801F0C3F84FF48071074899
:1006300001F06BF90420ADF800006946044801F0B0
:10064000B7F80421024801F060F908BD0008014034
:1006500000140140002103E000BF00BF00BF491C9F
:100660008142F9D37047014600BFFE48008800F080
:1006700002000028F9D0FB48001D018000BFF948A6
:10068000008800F001000028F9D0F648001D00881D
:10069000C0B27047F448806940F00100F2498861B7
:1006A0000846806940F008008861F048006820F042
:1006B000FF00EE4908600846006840F0330008601B
:1006C000081D0068C0F31300091D08600846006893
:1006D000E7490843E549091D0860E348C06940F45B
:1006E0008040E149C861DF4808380088DD490839A1
:1006F00008800846008840F400700880084600889A
:1007000040F4807008800846008840F004000880AB
:100710000846008808800846008820F0020008800B
:100720000846008820F0010008800846008840F054
:10073000380008800846008808800846008840F095
:1007400040000880704710B502460B460120C7499B
:10075000143108607E2000EA42042046FFF783FF40
:100760001846FFF780FF0120C0491031086010BD16
:1007700010B5024600240120BC49143108607E20D7
:1007800000EA420040F080031846FFF76CFF0020AB
:10079000FFF769FF04460120B44910310860204684
:1007A00010BD70B505460C4600262846FFF7E0FF51
:1007B000064646EA04012846FFF7C5FF70BD10B59E
:1007C0001420FFF7D5FF044604F0030018B90321F5
:1007D0001420FFF7E6FF10BD70B505460C46002655
:1007E0002846FFF7C5FF064626EA04012846FFF71C
:1007F000AAFF70BD10B50446412C26D10821084639
:10080000FFF7EAFF3D211120FFF79DFF862117200A
:10081000FFF799FF7F212620FFF795FF1E212D204E
:10082000FFF791FF00212C20FFF78DFF8D212A205B
:10083000FFF789FF3E212B20FFF785FF4FF47A70E9
:10084000FFF708FFFFF7BBFF01E0012010BD00200C
:10085000FCE700B503211420FFF7BEFF00BD00B583
:1008600002208249103108600A20FFF7F3FE0220BF
:100870007E49143108600A20FFF7ECFE02207B4914
:10088000103108600A20FFF7E5FE0F210120FFF775
:100890005AFF0F210120FFF756FF0A20FFF7DAFE6B
:1008A0003D211120FFF74FFF1E212D20FFF74BFFA9
:1008B00000212C20FFF747FF8D212A20FFF743FF5F
:1008C0003E212B20FFF73FFF40211520FFF73BFF84
:1008D000002000BD00B5FFF7DDFEFFF7C0FFFFF70A
:1008E000B8FFFFF76CFF4120FFF784FF00BD00B5A4
:1008F000FFF7B5FFFFF7ADFFFFF761FF00BD2DE983
:10090000FE4F0646884691469A46DDF830B00220F2
:1009100002900020019000900C2E06D00E2E09D1DE
:10092000122001901020009005E0772001903020E7
:10093000009000E000BF00BF019840F0800102205D
:10094000FFF701FF80210420FFF746FF002101206F
:10095000FFF7F9FE80210A20FFF723FF002506E0BC
:1009600018F805100920FFF7EEFE681C85B24D450A
:10097000F6DB31460120FFF7E6FE0C2E03D1802185
:100980000D20FFF70EFF4FF4167500BF0420FFF790
:10099000EFFE0446681E85B235B104F0010018B9B7
:1009A000009820400028F1D080210D20FFF714FF8F
:1009B000002D38D00620FFF7DBFE00F01B0078BBCF
:1009C000002002900198204000F0010008B10120B1
:1009D00002900C2E27D10A20FFF7CAFE04460C20F5
:1009E000FFF7C6FE00F007072FB1601E07EBC0003F
:1009F0008BF8000003E0E006000E8BF8000004B95D
:100A00000124122C00DD1224002506E00920FFF746
:100A1000AFFE0AF80500681C85B2A542F6DB02E0CD
:100A2000FFE70220029080210C20FFF7BAFE002190
:100A30000120FFF788FE0298BDE8FE8F70B587B0F1
:100A400005460C4608210846FFF7C6FE07210D2083
:100A5000FFF779FE03211420FFF7A3FE8DF8045061
:100A600006A807E00838004000100240000C0140D2
:100A70000000B0B801AB012201A900900C20FFF7E3
:100A80003EFF064656B99DF81800102806D19DF87D
:100A9000040020709DF80500607000E002263046DA
:100AA00007B070BDF0B587B005460027082108469D
:100AB000FFF792FE00210D20FFF745FE80210E205A
:100AC000FFF78AFE93208DF8040020208DF80500A2
:100AD00006A801AB022201A900900C20FFF70FFF2E
:100AE000064686B9002407E001A8005D285501A844
:100AF000005D4740601CC4B2042CF5DB01A8005D1A
:100B0000B84200D0022680210E20FFF74AFE304670
:100B100007B0F0BD2DE9F04107468846154604218F
:100B20000520FFF759FE00210120FFF70CFE802170
:100B30000A20FFF736FE002405E0395D0920FFF7A3
:100B400002FE601CC4B24445F7DB03210120FFF71D
:100B5000FAFDFF2400BF0520FFF70AFE0646601ECF
:100B6000C4B21CB106F004000028F4D02220FFF724
:100B7000FFFD28702120FFF7FBFD6870BDE8F081C4
:100B800070B587B0054693208DF8040070208DF86D
:100B9000050000208DF80A0000240BE0295D01AA61
:100BA000A01C11549DF80A00295D48408DF80A00E8
:100BB000601CC4B2042CF1DB0DF10B02072101A86B
:100BC000FFF7A8FF08210846FFF706FE06A801ABBD
:100BD000092201A900900C20FFF791FE06462EB9CC
:100BE0009DF81800182801D1002600E002263046A2
:100BF00007B070BD2DE9F04187B004460D4616469A
:100C00001F468DF804408DF805503068CDF8060079
:100C1000B088ADF80A003868039006A801AB0C2232
:100C200001A900900E20FFF76AFE8046B8F1000F80
:100C300005D10820FFF79CFD00F0080008B94FF02F
:100C40000208404607B0BDE8F081F0B587B0054620
:100C50000E4630208DF804008DF805500DF1060287
:100C6000022101A8FFF756FF06A801AB042201A943
:100C700000900C20FFF743FE07466FB99DF818005F
:100C8000902809D1002404E001A8005D3055601CC3
:100C9000C4B2102CF8DB00E00227384607B0F0BDE4
:100CA000F0B587B006460F46A0208DF804008DF8F9
:100CB00005600DF10602022101A8FFF72BFF06A82F
:100CC00001AB042201A900900C20FFF718FE054695
:100CD0004DB99DF81800042805D19DF8040000F0D6
:100CE0000F000A2800D0022515BB002404E0385D5F
:100CF00001A90855601CC4B2102CF8DB05AA10210C
:100D000001A8FFF707FF06A801AB122201A9009076
:100D10000C20FFF7F4FD05464DB99DF81800042896
:100D200005D19DF8040000F00F000A2800D002252C
:100D3000284607B0F0BD10B587B050208DF80400EC
:100D400000208DF805000DF10602022101A8FFF731
:100D5000E1FE06A801AB042201A900900C20FFF7D8
:100D6000CEFD0446204607B010BDF0B587B006465C
:100D70000D4617468DF804608DF805500DF10602FA
:100D8000022101A8FFF7C6FE06A801AB042201A9B3
:100D900000900C20FFF7B3FD04464CB99DF81800F5
:100DA000042805D19DF8040000F00F000A2800D0A7
:100DB0000224A4B93868019002AA042101A8FFF70F
:100DC000A9FE0020069006A801AB062201A900900A
:100DD0000C20FFF794FD0446022C00D00024FCB93F
:100DE000B0208DF804008DF805500DF106020221A7
:100DF00001A8FFF78FFE06A801AB042201A900900D
:100E00000C20FFF77CFD04464CB99DF8180004281F
:100E100005D19DF8040000F00F000A2800D002243C
:100E2000204607B0F0BD70B587B005460E46C2201B
:100E30008DF804008DF805500DF10602022101A87D
:100E4000FFF768FE06A801AB042201A900900C2060
:100E5000FFF755FD04464CB99DF81800042805D14C
:100E60009DF8040000F00F000A2800D00224CCB93D
:100E700000208DF804008DF805008DF806008DF82F
:100E8000070002AA042101A8FFF744FE06A801AB4F
:100E9000062201A900900C20FFF731FD0446022C28
:100EA00000D0002414B1022007B070BDB0208DF82E
:100EB00004008DF805600DF10602022101A8FFF77C
:100EC00029FE06A801AB042201A900900C20FFF71F
:100ED00016FD04464CB99DF81800042805D19DF86C
:100EE000040000F00F000A2800D002242046DBE7AF
:100EF00010B50024FFF7B3FC04460CB1204610BD2A
:100F00009F492620FFF79AFD04460CB12046F6E7DC
:100F10009C48FFF7C7FD04460CB12046EFE799480F
:100F2000FFF72EFE04460CB12046E8E72046E6E730
:100F3000FF209549088000BF9348001F008800F0FB
:100F400040000028F8D0FF208F49088000BF8E485D
:100F5000001F008800F040000028F8D0FF208A49D8
:100F6000088000BF8848001F008800F0400000286B
:100F7000F8D0704700210BE0425C834B1A8000BF21
:100F8000814A121F128802F04002002AF8D0491C40
:100F9000425C002AF0D17047F0B585B007460025C5
:100FA00014227AA1684601F013FA37B1012F5BD001
:100FB000022F70D0032F6DD199E004270826714BC2
:100FC000774A31466020FFF715FE054615B12846E1
:100FD00005B0F0BD73493046FFF737FE05460DB149
:100FE0002846F5E770A0FFF7C5FF002432E06D4802
:100FF000005D0A2190FBF1F01DF8000062490880B5
:1010000000BF6148001F008800F040000028F8D0B1
:101010006448005D0A2190FBF1F201FB12001DF80B
:1010200000005949088000BF5748001F008800F0A1
:1010300040000028F8D0012C0AD020205249088016
:1010400000BF5148001F008800F040000028F8D081
:10105000601CC4B2022CCADB56A0FFF78BFFFFF75F
:1010600067FFFFF768FE87E004270826454B4C4AD8
:1010700031466020FFF7BEFD05460DB12846A7E7C3
:101080004D493046FFF70CFE05460DB128469FE757
:1010900072E000E06EE004270B263A4B404A3146EE
:1010A0006020FFF7A7FD054625B144A001F014F923
:1010B00028468DE748493046FFF7F2FD054625B141
:1010C00046A001F009F9284682E74AA001F004F998
:1010D000002406E04048015D49A001F0FDF8601CD5
:1010E000C4B2062CF6DB3BA001F0F6F844E004277E
:1010F00044A0FFF73FFF002434E02249085DC117F8
:1011000000EB117109111DF801101F4A118000BF79
:101110001D48001F008800F040000028F8D0194941
:10112000085DC11700EB11710911A0EB01111DF849
:101130000110154A118000BF1348001F008800F0FD
:1011400040000028F8D0032C0AD020200E49088047
:1011500000BF0D48001F008800F040000028F8D0B4
:10116000601CC4B2042CC8DB12A0FFF703FFFFF71A
:10117000DFFE01E028462BE700BF284628E70000F5
:10118000200000202200002004380140303132339A
:1011900034353637383961626364656600000000B3
:1011A000270000209400002074332E7478743D22B0
:1011B0000000000022000000A4000020D0DEB8C41F
:1011C000C3DCC2EB204175746853746174652045BB
:1011D00072726F720A0000002D000020D0DEB8C4C9
:1011E000C3DCC2EB205772697465204572726F725E
:1011F0000A000000B8C4C3DCC2EBB3C9B9A63A0008
:101200002564000074322E7478743D2200000000C2
:10121000A04890F90000092879D2DFE800F0051312
:1012200021344454697987009B4908460069C1F814
:1012300002000846D1F80910016198490968C0F810
:10124000091087E0944801460969C0F80910014671
:10125000D1F80210016191490968C0F8021079E0E3
:101260008D480146D1F8091001610146D1F80210FC
:10127000C0F8091001460069C1F802000846874914
:101280000968016166E084480146D1F82510C0F87C
:1012900017100146D1F81E10C0F825107F490968C3
:1012A000C0F81E1056E07C480146D1F82510C0F861
:1012B0001E100146D1F81710C0F8251077490968AB
:1012C000C0F8171046E074480146D1F81E10C0F867
:1012D00025100146D1F81710C0F81E100146D1F8AC
:1012E0002510C0F817106D490968C0F8251031E0C5
:1012F00069480146D1F83A10C1620146D1F833106D
:10130000C0F83A1065490968C0F8331022E020E0BF
:1013100061480146D1F83A10C0F833100146C96A55
:10132000C0F83A105D490968C16213E05A480146A5
:10133000D1F83310C0F83A100146C96AC0F833102A
:101340000146D1F83A10C16254490968C0F83A1010
:1013500000E000BF00BF704708B5002000904D4876
:1013600090F90000092872D2DFE800F005121F3161
:10137000404F63727F00484908460069C1F8020087
:101380000846D1F8091001610099C0F809107FE002
:10139000414801460969C0F809100146D1F8021018
:1013A00001610099C0F8021072E03B480146D1F893
:1013B000091001610146D1F80210C0F80910014678
:1013C0000069C1F8020008460099016160E03248F6
:1013D0000146D1F82510C0F817100146D1F81E10AB
:1013E000C0F825100099C0F81E1051E02A480146A7
:1013F000D1F82510C0F81E100146D1F81710C0F81A
:1014000025100099C0F8171042E023480146D1F892
:101410001E10C0F825100146D1F81710C0F81E1094
:101420000146D1F82510C0F817100099C0F8251012
:101430002EE019480146D1F83A10C1620146D1F8B0
:101440003310C0F83A100099C0F8331020E01EE0C5
:1014500011480146D1F83A10C0F833100146C96A64
:10146000C0F83A100099C16212E00B480146D1F869
:101470003310C0F83A100146C96AC0F8331001466B
:10148000D1F83A10C1620099C0F83A1000E000BFEC
:1014900000BF08BD00000020330000202200002013
:1014A00010B56FF0040000F0F6FE2E4800682E49DB
:1014B000B0FBF1F02D4908700846007800EB4001C0
:1014C000C1EBC0104FF6FF7101EAC0002849088047
:1014D00010BD0146254A12784A434FF0E0235A6175
:1014E00000229A611A46126942F001021A6100BF95
:1014F0004FF0E022106900F001021AB100F48032CE
:10150000002AF5D04FF0E022126922F001024FF0DC
:10151000E0231A6100229A6170470146144A12883A
:101520004A434FF0E0235A6100229A611A46126939
:1015300042F001021A6100BF4FF0E022106900F092
:1015400001021AB100F48032002AF5D04FF0E022F7
:10155000126922F001024FF0E0231A6100229A6121
:10156000704700000C00002000127A00720000207A
:1015700074000020014600BF704700BF484A12882F
:1015800002F04002002AF9D0C2B2454B1B1D1A805E
:10159000704710B586B00446012144F2040000F003
:1015A000C3FB4FF40070ADF8140003208DF8160053
:1015B00018208DF8170005A93A4800F0F9F84FF403
:1015C0008060ADF8140004208DF8170005A9354897
:1015D00000F0EEF825208DF8000003208DF80100C2
:1015E0008DF8020001208DF80300684600F009FE26
:1015F00001940020ADF80800ADF80A00ADF80C0029
:10160000ADF810000C20ADF80E0001A9244800F040
:1016100032FC012240F22551214800F0C4FC012196
:101620001F4800F0B4FC06B010BD10B540F22551C3
:101630001B4800F09DFD48B3194800F019FDC4B2E5
:101640001948008800F4004000BB1748008800F4E7
:101650008040E0B1FC2C06D11348008840F40040E3
:10166000114908801BE010480088C0F30D000F49A5
:101670000C540D480088401C0B490880084600881F
:10168000C0F30D00C7280ADD0020088007E0FE2C0B
:1016900005D10548008840F480400349088010BD0A
:1016A00000380140000801407E000020B400002006
:1016B0000948804709480047FEE7FEE7FEE7FEE7E6
:1016C000FEE7FEE7FEE7FEE7FEE7FEE70448054922
:1016D000054A064B70470000030500083101000869
:1016E000E0010020E0070020E0030020E0030020EC
:1016F00010B50446CC48844208D10121042000F0F2
:101700002DFB0021042000F029FB46E0C74884425D
:1017100008D10121082000F021FB0021082000F061
:101720001DFB3AE0C248844208D10121102000F09C
:1017300015FB0021102000F011FB2EE0BD48844273
:1017400008D10121202000F009FB0021202000F019
:1017500005FB22E0B848844208D10121402000F076
:10176000FDFA0021402000F0F9FA16E0B348844267
:1017700008D10121802000F0F1FA0021802000F042
:10178000EDFA0AE0AE48844207D10121801500F04D
:10179000E5FA0021A01500F0E1FA10BD10B5012115
:1017A000084600F0DBFA0021012000F0D7FA10BD56
:1017B0002DE9F041024600250026002000230024E8
:1017C000002791F803C00CF00F0591F803C00CF04E
:1017D000100CBCF1000F03D091F802C04CEA0505D3
:1017E00091F800C0BCF1000F31D0146800202BE04C
:1017F0004FF0010C0CFA00F3B1F800C00CEA03063C
:101800009E4220D183004FF00F0C0CFA03F7BC432B
:1018100005FA03FC4CEA040491F803C0BCF1280F5C
:1018200006D14FF0010C0CFA00FCC2F814C00AE01B
:1018300091F803C0BCF1480F05D14FF0010C0CFA30
:1018400000FCC2F810C0401C0828D1D31460B1F8C5
:1018500000C0BCF1FF0F34DD546800202EE000F121
:10186000080C4FF0010808FA0CF3B1F800C00CEABC
:1018700003069E4221D183004FF00F0C0CFA03F7B0
:10188000BC4305FA03FC4CEA040491F803C0BCF124
:10189000280F05D100F1080C08FA0CF8C2F81480E2
:1018A00091F803C0BCF1480F07D100F1080C4FF0CC
:1018B000010808FA0CF8C2F81080401C0828CED3A2
:1018C0005460BDE8F0814FF6FF7101800221817004
:1018D0000421C17070470246002093680B400BB191
:1018E000012000E0002070470146886880B2704700
:1018F00002460020D3680B400BB1012000E000201D
:1019000070470146C86880B2704701617047416105
:1019100070470AB1016100E041617047C1607047E2
:101920004FF480320A4382618161826182698269F7
:10193000704702460020434B18684FF680731840EA
:1019400040EA021008433F4B186070473E49C861A7
:101950007047F0B50A46002300240021002500F05E
:101960000046B6F1004F02D1364EF16901E0354E26
:101970007168C0F3034583B200F44016B6F5401F0A
:1019800008D121F070612F4E766826F070662D4FD9
:101990007E6012E000F48016B6F5801F06D10326A3
:1019A00006FA05F4A14341F0706106E0460D3601E8
:1019B00003FA06F6B14341F0706122B1460D3601DB
:1019C00003FA06F6314300F00046B6F1004F02D1AB
:1019D0001C4EF16101E01B4E7160F0BD30B500227C
:1019E0008B071C0F0F2303FA04F2164B08338C10DD
:1019F00053F824309343134C08348D1044F82530A9
:101A000023468C1053F824308C07240F00FA04F47A
:101A100023430C4C08348D1044F8253030BD0A495E
:101A2000DC3108607047000000080140000C0140F4
:101A3000001001400014014000180140001C01404A
:101A4000002001400000014000002042DF48006803
:101A500040F00100DD49086008464068DC49084064
:101A6000DA49486008460068DA490840D749086002
:101A70000846006820F4802008600846406820F48A
:101A8000FE0048604FF41F0088607047CF49096826
:101A900021F48031CD4A11601146096821F480217A
:101AA0001160B0F5803F03D0B0F5802F0ED106E075
:101AB000C649096841F48031C44A116007E0C3494E
:101AC000096841F4A021C14A116000E000BF00BFD5
:101AD000704710B501460022002300204A11012A58
:101AE00002D1BA4C236806E0022A02D1B74C236A1D
:101AF00001E0B64C636A01F01F02012494401C40CF
:101B00000CB1012000E0002010BD38B5002000908D
:101B10000024002500BF3120FFF7DBFF05460098B9
:101B2000401C00900098B0F5A06F01D0002DF2D0BD
:101B30003120FFF7CEFF08B1012400E00024204649
:101B400038BD01460020A14A106820F0F80040EAA4
:101B5000C10010607047A04908607047024600202D
:101B60009A4B586820F47C1042EA01031843974BC3
:101B70005860704798490866704701460020934AAC
:101B8000506820F003000843506070478F48406859
:101B900000F00C007047014600208C4A506820F08D
:101BA000F00008435060704701460020874A5068A3
:101BB00020F4E06008435060704701460020834AEB
:101BC000506820F4605040EAC1005060704729B16D
:101BD0007E4A527A02437D4B5A7204E07B4A527A23
:101BE00082437A4B5A7270477B49D83108607047FC
:101BF00001460020754A506820F440400843506078
:101C000070470021714A20321170704A82F820100A
:101C1000012802D004280AD104E001216B4A2032B5
:101C2000117005E00521694A2032117000E000BF03
:101C300000BF70476949086070476449096A0143F9
:101C4000624A11627047654944390860704730B58F
:101C500000210022002400235C4D6D6805F00C017A
:101C600021B1042905D0082923D105E05C4D056088
:101C700022E05B4D05601FE0544D6D6805F4701265
:101C8000524D6D6805F48034022505EB92421CB973
:101C9000544D554305600BE04C4D6D6805F400351F
:101CA0001DB1504D5543056002E04D4D5543056053
:101CB00002E04B4D056000BF00BF444D6D6805F06C
:101CC000F0010909484D6B5C0568DD4045603F4DFA
:101CD0006D6805F4E061090A434D6B5C4568DD40C1
:101CE00085603A4D6D6805F46051C90A3E4D6B5CE4
:101CF0004568DD40C560354D6D6805F44041890B90
:101D00003A4D6B5CC568B5FBF3F5056130BD29B193
:101D10002E4A526902432D4B5A6104E02B4A526904
:101D200082432A4B5A61704729B1284A926902437B
:101D3000264B9A6104E0254A92698243234B9A61BB
:101D4000704729B1214AD2690243204BDA6104E08D
:101D50001E4AD26982431D4BDA61704729B11B4A82
:101D6000D2680243194BDA6004E0184AD268824311
:101D7000164BDA60704729B1144A12690243134BBB
:101D80001A6104E0114A12698243104B1A617047CC
:101D900012494039086070470F49C86470470B49C1
:101DA000C87170470948406A40F08070074948622E
:101DB000704701460020054A92680A400AB1012096
:101DC00000E000207047014988727047001002400F
:101DD0000000FFF8FFFFF6FE00004242800442428E
:101DE00000127A0000093D008000002090000020D1
:101DF00010B50446FB48844209D101218803FFF74E
:101E0000ADFF00214FF48040FFF7A8FF32E0F64815
:101E1000844209D101214804FFF7ADFF00214FF4AE
:101E20000030FFF7A8FF25E0F048844209D10121E6
:101E30008804FFF7A0FF00214FF48020FFF79BFFED
:101E400018E0EB48844209D10121C804FFF793FF51
:101E500000214FF40020FFF78EFF0BE0E54884429D
:101E600008D101210805FFF786FF00214FF48010FB
:101E7000FFF781FF10BD2DE9F04786B005460E46FD
:101E80000024A24600BFA1460027B08900B100BFD0
:101E90002F462C8A4CF6FF700440F08804432C82B5
:101EA000AC894EF6F3100440B0883189084371893B
:101EB00008430443AC81AC8A4FF6FF400440B0892C
:101EC0000443AC8201A8FFF7C2FEC648874202D194
:101ED000DDF810A001E0DDF80CA0A88900F40040B6
:101EE00040B10AEBCA0000EB0A1031684900B0FBB0
:101EF000F1F807E00AEBCA0000EB0A10316889002C
:101F0000B0FBF1F86420B8FBF0F004012009642173
:101F100001FB1089A88900F4004040B1322000EB99
:101F2000C900B0FBF1F000F00700044308E03220E4
:101F300000EB09106421B0FBF1F000F00F00044346
:101F40002C8106B0BDE8F0874FF4165101600021E6
:101F50008180C18001810C214181002181817047F4
:101F600010B502460020108A4FF2FF0318400B887C
:101F70004C8823438C882343CC8823431843108206
:101F800010BD0021018041808180C180704721B156
:101F9000828942F40052828104E082894DF6FF7307
:101FA0001A4082817047F0B50346002400260025C0
:101FB000002040F66A17B94200D100BF1846C1F3AD
:101FC000421401F01F06012707FA06F5012C01D182
:101FD0000C3004E0022C01D1103000E014301AB1B2
:101FE00007682F43076002E00768AF430760F0BD52
:101FF0001AB1838A0B43838202E0838A8B438382F4
:102000007047028A4FF6F0731A400282028A0A432E
:102010000282704782894FF2FF731A40828182895F
:102020000A438281704721B1828942F00202828193
:1020300004E082894FF6FD731A4082817047028A5C
:102040004FF6DF731A400282028A0A430282704707
:1020500021B1028A42F48042028204E0028A4BF6F5
:10206000FF731A4002827047C1F3080282807047F2
:1020700001468888C0F308007047818941F001015A
:1020800081817047028BD2B20283028B42EA012225
:1020900002837047028B02F47F420283028B0A4361
:1020A0000283704721B1828A42F02002828204E0DA
:1020B000828A4FF6DF731A408282704721B1828A8A
:1020C00042F01002828204E0828A4FF6EF731A40D7
:1020D0008282704721B1828A42F00802828204E043
:1020E000828A4FF6F7731A408282704721B1828943
:1020F00042F40042828103E08289C2F30E028281AF
:10210000704721B1828A42F40062828204E0828AAE
:102110004FF2FF731A4082827047828A4FF6FB7338
:102120001A408282828A0A438282704721B1828A5F
:1021300042F00202828204E0828A4FF6FD731A4066
:102140008282704702460020B1F5007F00D100BFB7
:1021500013880B400BB1012000E00020704701F410
:102160000072B2F5007F00D100BFCA430280704701
:1021700070B50246002400230025002040F66A16B0
:10218000B14200D100BFC1F3421501F01F03012687
:1021900006FA03F3012D02D19689334006E0022DA1
:1021A00002D1168A334001E0968A33400C12012690
:1021B00006FA04F41688344013B10CB1012000E093
:1021C000002070BD10B50022002340F66A14A14221
:1021D00000D100BF0A1201249440A3B2DC43048062
:1021E00010BD00000038014000440040004800409D
:1021F000004C00400050004031490143314A116019
:10220000704770B5002100230F22C47804B32D4C11
:10221000246804F4E064C4F5E064210AC1F1040315
:10222000CA40447804FA03F1847814402143090138
:10223000254C0678A155047804F01F050124AC4014
:1022400005786D11AD0005F1E025C5F8004109E004
:10225000047804F01F050124AC401C4D067876116B
:1022600045F8264070BD1A4A0A400243154B1B1F11
:102270001A60704739B1134A121D12680243114B9C
:102280001B1D1A6006E00F4A121D126882430D4B97
:102290001B1D1A607047042808D14FF0E02109691E
:1022A00041F004014FF0E022116107E04FF0E0211E
:1022B000096921F004014FF0E0221161704700002C
:1022C0000000FA050CED00E000E400E080E100E031
:1022D00080FFFF1F704700000FB4044910B503AA28
:1022E000029800F005F910BC5DF814FB780000209E
:1022F0002DE9F0410E460446002020622046E168A8
:10230000884730B3252805D0D4E901219047206AB9
:10231000401CF2E7E168204600278847050018D0F6
:10232000A5F14100192802D820354FF40067324644
:10233000294620462760FDF735FF40B1012804D02B
:10234000F61D26F007060836D8E7361DD6E72846DC
:10235000DAE7206ABDE8F0812DE9F0410646002465
:1023600010687529314616A510D0AFF300800028FB
:1023700002DA404213A507E031688A0701D512A5A9
:1023800002E0490704D511A5012401E0AFF3008064
:1023900000210A2206F1240709E0B0FBF2FCB0FBA1
:1023A000F2F302FB1C00303078541846491C002818
:1023B000F3D123462A463046BDE8F04100F03EB84E
:1023C000000000002D0000002B0000002000000095
:1023D00010B5203AC0F00B80B1E81850203AA0E8C0
:1023E0001850B1E81850A0E81850BFF4F5AF5FEAF4
:1023F000027C24BFB1E81850A0E8185044BF18C9A7
:1024000018C0BDE810405FEA827C24BF51F8043B4D
:1024100040F8043B08BF7047D20728BF31F8023BA1
:1024200048BF11F8012B28BF20F8023B48BF00F835
:10243000012B704770477047704770472DE9F04790
:102440000D4699469246044600F124080168880624
:1024500004D5E06921F01001216000E00120A842CC
:1024600001DD471B00E00027A1697A1902EB090092
:10247000081AA0612078C00602D42046AFF300807D
:10248000002608E0D4E901211AF806009047206AE6
:10249000401C761C20624E45F4DB2078C0060AD52D
:1024A0002046AFF3008006E0D4E9012130209047B8
:1024B000206A401C2062381EA7F10107F4DC07E007
:1024C000D4E9012118F805009047206A401C2062D9
:1024D000281EA5F10105F3DC2046AFF3008020782B
:1024E000000602D50220BDE8F0870120FBE70000CE
:1024F000074B70B50D467B4400F011F804462846A2
:1025000000F020F810B14FF0FF3070BD204670BDD4
:1025100081F0FFFF01694A1C02610878704700B52D
:102520008FB0CDE901310021059105497944CDE90C
:10253000031011466846FFF7DBFE0FB000BD000038
:10254000E5FFFFFF007B00F080007047754600F05C
:102550002BF8AE4605006946534620F00700854635
:1025600018B020B5FFF7B2F8BDE820404FF00006E4
:102570004FF000074FF000084FF0000B21F007016B
:10258000AC46ACE8C009ACE8C009ACE8C009ACE8AE
:10259000C0098D46704710B50446AFF30080204651
:1025A000BDE81040FDF710BE004870477C010020D8
:1025B000D025000800000020940000006C010008F5
:1025C00064260008940000204C07000088010008E1
:1025D000FF000000F40100000000000000A24A0417
:1025E00000000000000000000102030406070809C3
:1025F00000000000000000FFFFFFFFFFFF000000E1
:1026000000000001010000000000010200000000C5
:1026100000010300000000000201000000000002B1
:10262000020000000000020300000000000301009F
:10263000000000000302000000000003030000008F
:10264000000000000000000000000000000000008A
:102650000000000001020304010203040607080948
:042660000204060862
:0400000508000131BD
:00000001FF
